{
  "_format": "hh-sol-artifact-1",
  "contractName": "RainInsurance",
  "sourceName": "contracts/RainInsurance.sol",
  "abi": [
    {
      "inputs": [
        {
          "internalType": "address",
          "name": "token",
          "type": "address"
        }
      ],
      "stateMutability": "nonpayable",
      "type": "constructor"
    },
    {
      "anonymous": false,
      "inputs": [
        {
          "indexed": true,
          "internalType": "bytes32",
          "name": "id",
          "type": "bytes32"
        }
      ],
      "name": "ChainlinkCancelled",
      "type": "event"
    },
    {
      "anonymous": false,
      "inputs": [
        {
          "indexed": true,
          "internalType": "bytes32",
          "name": "id",
          "type": "bytes32"
        }
      ],
      "name": "ChainlinkFulfilled",
      "type": "event"
    },
    {
      "anonymous": false,
      "inputs": [
        {
          "indexed": true,
          "internalType": "bytes32",
          "name": "id",
          "type": "bytes32"
        }
      ],
      "name": "ChainlinkRequested",
      "type": "event"
    },
    {
      "anonymous": false,
      "inputs": [
        {
          "indexed": false,
          "internalType": "uint256",
          "name": "policyId",
          "type": "uint256"
        },
        {
          "indexed": false,
          "internalType": "address",
          "name": "policyHolder",
          "type": "address"
        },
        {
          "indexed": false,
          "internalType": "uint256",
          "name": "insuredAmount",
          "type": "uint256"
        }
      ],
      "name": "ClaimCreated",
      "type": "event"
    },
    {
      "anonymous": false,
      "inputs": [
        {
          "indexed": true,
          "internalType": "uint256",
          "name": "policyId",
          "type": "uint256"
        },
        {
          "indexed": true,
          "internalType": "address",
          "name": "policyHolder",
          "type": "address"
        },
        {
          "indexed": false,
          "internalType": "uint256",
          "name": "insuredAmount",
          "type": "uint256"
        },
        {
          "indexed": false,
          "internalType": "string",
          "name": "reason",
          "type": "string"
        }
      ],
      "name": "ClaimProcessed",
      "type": "event"
    },
    {
      "anonymous": false,
      "inputs": [
        {
          "indexed": true,
          "internalType": "address",
          "name": "from",
          "type": "address"
        },
        {
          "indexed": true,
          "internalType": "address",
          "name": "to",
          "type": "address"
        }
      ],
      "name": "OwnershipTransferRequested",
      "type": "event"
    },
    {
      "anonymous": false,
      "inputs": [
        {
          "indexed": true,
          "internalType": "address",
          "name": "from",
          "type": "address"
        },
        {
          "indexed": true,
          "internalType": "address",
          "name": "to",
          "type": "address"
        }
      ],
      "name": "OwnershipTransferred",
      "type": "event"
    },
    {
      "anonymous": false,
      "inputs": [
        {
          "indexed": false,
          "internalType": "uint256",
          "name": "policyId",
          "type": "uint256"
        },
        {
          "indexed": false,
          "internalType": "address",
          "name": "policyHolder",
          "type": "address"
        },
        {
          "indexed": false,
          "internalType": "uint256",
          "name": "premiumAmount",
          "type": "uint256"
        },
        {
          "indexed": false,
          "internalType": "uint256",
          "name": "insuredAmount",
          "type": "uint256"
        }
      ],
      "name": "PolicyCreated",
      "type": "event"
    },
    {
      "anonymous": false,
      "inputs": [
        {
          "indexed": true,
          "internalType": "bytes32",
          "name": "requestId",
          "type": "bytes32"
        },
        {
          "indexed": false,
          "internalType": "bool",
          "name": "result",
          "type": "bool"
        }
      ],
      "name": "RequestResult",
      "type": "event"
    },
    {
      "inputs": [],
      "name": "acceptOwnership",
      "outputs": [],
      "stateMutability": "nonpayable",
      "type": "function"
    },
    {
      "inputs": [
        {
          "internalType": "address",
          "name": "",
          "type": "address"
        },
        {
          "internalType": "uint256",
          "name": "",
          "type": "uint256"
        }
      ],
      "name": "addressPolicies",
      "outputs": [
        {
          "internalType": "uint256",
          "name": "startDate",
          "type": "uint256"
        },
        {
          "internalType": "uint256",
          "name": "endDate",
          "type": "uint256"
        },
        {
          "internalType": "string",
          "name": "lat",
          "type": "string"
        },
        {
          "internalType": "string",
          "name": "long",
          "type": "string"
        },
        {
          "internalType": "uint256",
          "name": "precipitation",
          "type": "uint256"
        },
        {
          "internalType": "uint256",
          "name": "insuredAmount",
          "type": "uint256"
        },
        {
          "internalType": "uint256",
          "name": "premiumAmount",
          "type": "uint256"
        },
        {
          "internalType": "uint256",
          "name": "policyId",
          "type": "uint256"
        }
      ],
      "stateMutability": "view",
      "type": "function"
    },
    {
      "inputs": [
        {
          "internalType": "address",
          "name": "",
          "type": "address"
        }
      ],
      "name": "addressPoliciesCount",
      "outputs": [
        {
          "internalType": "uint256",
          "name": "",
          "type": "uint256"
        }
      ],
      "stateMutability": "view",
      "type": "function"
    },
    {
      "inputs": [
        {
          "components": [
            {
              "internalType": "uint256",
              "name": "startDate",
              "type": "uint256"
            },
            {
              "internalType": "uint256",
              "name": "endDate",
              "type": "uint256"
            },
            {
              "internalType": "string",
              "name": "lat",
              "type": "string"
            },
            {
              "internalType": "string",
              "name": "long",
              "type": "string"
            },
            {
              "internalType": "uint256",
              "name": "precipitation",
              "type": "uint256"
            },
            {
              "internalType": "uint256",
              "name": "insuredAmount",
              "type": "uint256"
            },
            {
              "internalType": "uint256",
              "name": "premiumAmount",
              "type": "uint256"
            },
            {
              "internalType": "uint256",
              "name": "policyId",
              "type": "uint256"
            }
          ],
          "internalType": "struct RainInsurance.Policy",
          "name": "policy",
          "type": "tuple"
        }
      ],
      "name": "applyForPolicy",
      "outputs": [],
      "stateMutability": "payable",
      "type": "function"
    },
    {
      "inputs": [
        {
          "internalType": "bytes32",
          "name": "",
          "type": "bytes32"
        }
      ],
      "name": "claims",
      "outputs": [
        {
          "internalType": "uint256",
          "name": "",
          "type": "uint256"
        }
      ],
      "stateMutability": "view",
      "type": "function"
    },
    {
      "inputs": [
        {
          "internalType": "uint256",
          "name": "policyId",
          "type": "uint256"
        }
      ],
      "name": "expirePolicy",
      "outputs": [],
      "stateMutability": "nonpayable",
      "type": "function"
    },
    {
      "inputs": [
        {
          "internalType": "uint256",
          "name": "policyId",
          "type": "uint256"
        }
      ],
      "name": "fireClaim",
      "outputs": [],
      "stateMutability": "nonpayable",
      "type": "function"
    },
    {
      "inputs": [
        {
          "internalType": "bytes32",
          "name": "_requestId",
          "type": "bytes32"
        },
        {
          "internalType": "bool",
          "name": "_result",
          "type": "bool"
        }
      ],
      "name": "fulfill",
      "outputs": [],
      "stateMutability": "nonpayable",
      "type": "function"
    },
    {
      "inputs": [
        {
          "internalType": "address",
          "name": "user",
          "type": "address"
        }
      ],
      "name": "getAllPolicies",
      "outputs": [
        {
          "components": [
            {
              "internalType": "uint256",
              "name": "startDate",
              "type": "uint256"
            },
            {
              "internalType": "uint256",
              "name": "endDate",
              "type": "uint256"
            },
            {
              "internalType": "string",
              "name": "lat",
              "type": "string"
            },
            {
              "internalType": "string",
              "name": "long",
              "type": "string"
            },
            {
              "internalType": "uint256",
              "name": "precipitation",
              "type": "uint256"
            },
            {
              "internalType": "uint256",
              "name": "insuredAmount",
              "type": "uint256"
            },
            {
              "internalType": "uint256",
              "name": "premiumAmount",
              "type": "uint256"
            },
            {
              "internalType": "uint256",
              "name": "policyId",
              "type": "uint256"
            }
          ],
          "internalType": "struct RainInsurance.Policy[]",
          "name": "ret",
          "type": "tuple[]"
        }
      ],
      "stateMutability": "view",
      "type": "function"
    },
    {
      "inputs": [
        {
          "internalType": "address",
          "name": "user",
          "type": "address"
        }
      ],
      "name": "getAllPolicyIds",
      "outputs": [
        {
          "internalType": "uint256[]",
          "name": "ret",
          "type": "uint256[]"
        }
      ],
      "stateMutability": "view",
      "type": "function"
    },
    {
      "inputs": [
        {
          "internalType": "uint256",
          "name": "policyId",
          "type": "uint256"
        }
      ],
      "name": "getPolicy",
      "outputs": [
        {
          "components": [
            {
              "internalType": "uint256",
              "name": "startDate",
              "type": "uint256"
            },
            {
              "internalType": "uint256",
              "name": "endDate",
              "type": "uint256"
            },
            {
              "internalType": "string",
              "name": "lat",
              "type": "string"
            },
            {
              "internalType": "string",
              "name": "long",
              "type": "string"
            },
            {
              "internalType": "uint256",
              "name": "precipitation",
              "type": "uint256"
            },
            {
              "internalType": "uint256",
              "name": "insuredAmount",
              "type": "uint256"
            },
            {
              "internalType": "uint256",
              "name": "premiumAmount",
              "type": "uint256"
            },
            {
              "internalType": "uint256",
              "name": "policyId",
              "type": "uint256"
            }
          ],
          "internalType": "struct RainInsurance.Policy",
          "name": "",
          "type": "tuple"
        }
      ],
      "stateMutability": "view",
      "type": "function"
    },
    {
      "inputs": [],
      "name": "getRiskPoolBalance",
      "outputs": [
        {
          "internalType": "uint256",
          "name": "",
          "type": "uint256"
        }
      ],
      "stateMutability": "view",
      "type": "function"
    },
    {
      "inputs": [],
      "name": "owner",
      "outputs": [
        {
          "internalType": "address",
          "name": "",
          "type": "address"
        }
      ],
      "stateMutability": "view",
      "type": "function"
    },
    {
      "inputs": [
        {
          "internalType": "uint256",
          "name": "",
          "type": "uint256"
        }
      ],
      "name": "policies",
      "outputs": [
        {
          "internalType": "uint256",
          "name": "startDate",
          "type": "uint256"
        },
        {
          "internalType": "uint256",
          "name": "endDate",
          "type": "uint256"
        },
        {
          "internalType": "string",
          "name": "lat",
          "type": "string"
        },
        {
          "internalType": "string",
          "name": "long",
          "type": "string"
        },
        {
          "internalType": "uint256",
          "name": "precipitation",
          "type": "uint256"
        },
        {
          "internalType": "uint256",
          "name": "insuredAmount",
          "type": "uint256"
        },
        {
          "internalType": "uint256",
          "name": "premiumAmount",
          "type": "uint256"
        },
        {
          "internalType": "uint256",
          "name": "policyId",
          "type": "uint256"
        }
      ],
      "stateMutability": "view",
      "type": "function"
    },
    {
      "inputs": [
        {
          "internalType": "uint256",
          "name": "",
          "type": "uint256"
        }
      ],
      "name": "policyHolders",
      "outputs": [
        {
          "internalType": "address",
          "name": "",
          "type": "address"
        }
      ],
      "stateMutability": "view",
      "type": "function"
    },
    {
      "inputs": [
        {
          "internalType": "string",
          "name": "lat",
          "type": "string"
        },
        {
          "internalType": "string",
          "name": "long",
          "type": "string"
        },
        {
          "internalType": "uint256",
          "name": "startdate",
          "type": "uint256"
        },
        {
          "internalType": "uint256",
          "name": "enddate",
          "type": "uint256"
        },
        {
          "internalType": "uint256",
          "name": "precipitation",
          "type": "uint256"
        }
      ],
      "name": "requestData",
      "outputs": [
        {
          "internalType": "bytes32",
          "name": "requestId",
          "type": "bytes32"
        }
      ],
      "stateMutability": "nonpayable",
      "type": "function"
    },
    {
      "inputs": [
        {
          "internalType": "address",
          "name": "to",
          "type": "address"
        }
      ],
      "name": "transferOwnership",
      "outputs": [],
      "stateMutability": "nonpayable",
      "type": "function"
    },
    {
      "inputs": [],
      "name": "usdcToken",
      "outputs": [
        {
          "internalType": "contract IERC20",
          "name": "",
          "type": "address"
        }
      ],
      "stateMutability": "view",
      "type": "function"
    },
    {
      "inputs": [],
      "name": "withdrawLink",
      "outputs": [],
      "stateMutability": "nonpayable",
      "type": "function"
    }
  ],
  "bytecode": "0x608060405260016004553480156200001657600080fd5b50604051620030ba380380620030ba833981016040819052620000399162000226565b3380600081620000905760405162461bcd60e51b815260206004820152601860248201527f43616e6e6f7420736574206f776e657220746f207a65726f000000000000000060448201526064015b60405180910390fd5b600680546001600160a01b0319166001600160a01b0384811691909117909155811615620000c357620000c3816200017a565b5050600880546001600160a01b0384166001600160a01b0319918216179091556002805490911673326c977e6efc84e512bb9c30f76e30c160ed06fb17905550600380546001600160a01b0319167340193c8518bb267228fc409a613bdbd8ec5a97b31790557f6331633565393238383038393465623662323764336361653139363730616133600f55600a62000164670de0b6b3a7640000600162000258565b62000170919062000284565b60105550620002a7565b336001600160a01b03821603620001d45760405162461bcd60e51b815260206004820152601760248201527f43616e6e6f74207472616e7366657220746f2073656c66000000000000000000604482015260640162000087565b600780546001600160a01b0319166001600160a01b03838116918217909255600654604051919216907fed8889f560326eb138920d842192f0eb3dd22b4f139c87a2c57538e05bae127890600090a350565b6000602082840312156200023957600080fd5b81516001600160a01b03811681146200025157600080fd5b9392505050565b80820281158282048414176200027e57634e487b7160e01b600052601160045260246000fd5b92915050565b600082620002a257634e487b7160e01b600052601260045260246000fd5b500490565b612e0380620002b76000396000f3fe6080604052600436106101145760003560e01c80638dc654a2116100a0578063e338415c11610064578063e338415c1461033f578063eff0f59214610354578063f2fde38b14610381578063f78a63c4146103a1578063fd68990a146103c157600080fd5b80638dc654a214610273578063a83df28814610288578063be62dcf1146102bc578063c2f387a4146102f2578063d3e894831461031f57600080fd5b80634892cdab116100e75780634892cdab146101d25780636cb4f3c4146101f2578063752ec8981461022d57806379ba5097146102405780638da5cb5b1461025557600080fd5b806311eac855146101195780632b07fce3146101565780632d9a147c146101835780633037e4cd146101b0575b600080fd5b34801561012557600080fd5b50600854610139906001600160a01b031681565b6040516001600160a01b0390911681526020015b60405180910390f35b34801561016257600080fd5b50610176610171366004612364565b6103e1565b60405161014d9190612446565b34801561018f57600080fd5b506101a361019e366004612475565b61056f565b60405161014d9190612490565b3480156101bc57600080fd5b506101d06101cb366004612364565b610690565b005b3480156101de57600080fd5b506101d06101ed366004612364565b6106a4565b3480156101fe57600080fd5b5061021f61020d366004612475565b600d6020526000908152604090205481565b60405190815260200161014d565b6101d061023b36600461259f565b6108f9565b34801561024c57600080fd5b506101d0610c4d565b34801561026157600080fd5b506006546001600160a01b0316610139565b34801561027f57600080fd5b506101d0610cfb565b34801561029457600080fd5b506102a86102a336600461266f565b610e3c565b60405161014d989796959493929190612699565b3480156102c857600080fd5b506101396102d7366004612364565b600a602052600090815260409020546001600160a01b031681565b3480156102fe57600080fd5b5061031261030d366004612475565b610fb1565b60405161014d91906126f5565b34801561032b57600080fd5b506102a861033a366004612364565b611242565b34801561034b57600080fd5b5061021f61126a565b34801561036057600080fd5b5061021f61036f366004612364565b600e6020526000908152604090205481565b34801561038d57600080fd5b506101d061039c366004612475565b6112dc565b3480156103ad57600080fd5b5061021f6103bc366004612757565b6112ed565b3480156103cd57600080fd5b506101d06103dc3660046127e3565b6113b1565b6103e961221c565b600b600083815260200190815260200160002060405180610100016040529081600082015481526020016001820154815260200160028201805461042c90612813565b80601f016020809104026020016040519081016040528092919081815260200182805461045890612813565b80156104a55780601f1061047a576101008083540402835291602001916104a5565b820191906000526020600020905b81548152906001019060200180831161048857829003601f168201915b505050505081526020016003820180546104be90612813565b80601f01602080910402602001604051908101604052809291908181526020018280546104ea90612813565b80156105375780601f1061050c57610100808354040283529160200191610537565b820191906000526020600020905b81548152906001019060200180831161051a57829003601f168201915b505050505081526020016004820154815260200160058201548152602001600682015481526020016007820154815250509050919050565b6001600160a01b0381166000908152600d6020526040902054606090806001600160401b038111156105a3576105a36124d4565b6040519080825280602002602001820160405280156105cc578160200160208202803683370190505b50915060005b81811015610689576001600160a01b0384166000908152600c6020526040812080548390811061060457610604612847565b9060005260206000209060080201600701541115610677576001600160a01b0384166000908152600c6020526040902080548290811061064657610646612847565b90600052602060002090600802016007015483828151811061066a5761066a612847565b6020026020010181815250505b8061068181612873565b9150506105d2565b5050919050565b6106986117e3565b6106a181611838565b50565b6000600b60008381526020019081526020016000206040518061010001604052908160008201548152602001600182015481526020016002820180546106e990612813565b80601f016020809104026020016040519081016040528092919081815260200182805461071590612813565b80156107625780601f1061073757610100808354040283529160200191610762565b820191906000526020600020905b81548152906001019060200180831161074557829003601f168201915b5050505050815260200160038201805461077b90612813565b80601f01602080910402602001604051908101604052809291908181526020018280546107a790612813565b80156107f45780601f106107c9576101008083540402835291602001916107f4565b820191906000526020600020905b8154815290600101906020018083116107d757829003601f168201915b50505050508152602001600482015481526020016005820154815260200160068201548152602001600782015481525050905060008160a00151116108755760405162461bcd60e51b81526020600482015260126024820152714d7573742068617665206120706f6c69637960701b60448201526064015b60405180910390fd5b60a08101516040805184815233602082015280820192909252517f7c61b972a4b7793ab7c7a85d214e2769579c27752c5da069b2817e21a0efe80b9181900360600190a160006108dc826040015183606001518460000151856020015186608001516112ed565b60e0909201516000928352600e6020526040909220919091555050565b60008160c001511161095b5760405162461bcd60e51b815260206004820152602560248201527f5072656d69756d20616d6f756e74206d75737420626520677265617465722074604482015264068616e20360dc1b606482015260840161086c565b60008160a00151116109bd5760405162461bcd60e51b815260206004820152602560248201527f496e737572656420616d6f756e74206d75737420626520677265617465722074604482015264068616e20360dc1b606482015260840161086c565b60085460c08201516040516323b872dd60e01b815233600482015230602482015260448101919091526000916001600160a01b0316906323b872dd906064016020604051808303816000875af1158015610a1b573d6000803e3d6000fd5b505050506040513d601f19601f82011682018060405250810190610a3f919061288c565b905080610a8e5760405162461bcd60e51b815260206004820152601960248201527f5072656d69756d20636f6c6c656374696f6e206661696c656400000000000000604482015260640161086c565b600160096000828254610aa191906128b0565b9091555050600980546000908152600a6020908152604080832080546001600160a01b0319163317905592548252600b81529082902084518155908401516001820155908301518391906002820190610afa9082612911565b5060608201516003820190610b0f9082612911565b506080820151600482015560a0820151600582015560c0820151600682015560e0909101516007918201556009546000818152600b6020818152604080842095860194909455338352600c81529282209083528054600181810183559183529290912083546008909302019182558083015490820155600280820190610b97908401826129d0565b50600381810190610baa908401826129d0565b50600482810154908201556005808301549082015560068083015490820155600791820154910155336000908152600d60205260408120805460019290610bf29084906128b0565b909155505060095460c083015160a08401516040805193845233602085015283019190915260608201527ff407f724dd5d2b7754fcbc405960f07c8da0a85e7f71948913fb2997e77bfc869060800160405180910390a15050565b6007546001600160a01b03163314610ca05760405162461bcd60e51b815260206004820152601660248201527526bab9ba10313290383937b837b9b2b21037bbb732b960511b604482015260640161086c565b600680546001600160a01b0319808216339081179093556007805490911690556040516001600160a01b03909116919082907f8be0079c531659141344cd1fd0a4f28419497f9722a3daafe3b4186f6b6457e090600090a350565b610d036117e3565b6000610d176002546001600160a01b031690565b6040516370a0823160e01b81523060048201529091506001600160a01b0382169063a9059cbb90339083906370a0823190602401602060405180830381865afa158015610d68573d6000803e3d6000fd5b505050506040513d601f19601f82011682018060405250810190610d8c9190612aaa565b6040516001600160e01b031960e085901b1681526001600160a01b03909216600483015260248201526044016020604051808303816000875af1158015610dd7573d6000803e3d6000fd5b505050506040513d601f19601f82011682018060405250810190610dfb919061288c565b6106a15760405162461bcd60e51b81526020600482015260126024820152712ab730b13632903a37903a3930b739b332b960711b604482015260640161086c565b600c6020528160005260406000208181548110610e5857600080fd5b906000526020600020906008020160009150915050806000015490806001015490806002018054610e8890612813565b80601f0160208091040260200160405190810160405280929190818152602001828054610eb490612813565b8015610f015780601f10610ed657610100808354040283529160200191610f01565b820191906000526020600020905b815481529060010190602001808311610ee457829003601f168201915b505050505090806003018054610f1690612813565b80601f0160208091040260200160405190810160405280929190818152602001828054610f4290612813565b8015610f8f5780601f10610f6457610100808354040283529160200191610f8f565b820191906000526020600020905b815481529060010190602001808311610f7257829003601f168201915b5050505050908060040154908060050154908060060154908060070154905088565b6001600160a01b0381166000908152600d6020526040902054606090806001600160401b03811115610fe557610fe56124d4565b60405190808252806020026020018201604052801561101e57816020015b61100b61221c565b8152602001906001900390816110035790505b50915060005b81811015610689576001600160a01b0384166000908152600c6020526040812080548390811061105657611056612847565b9060005260206000209060080201600701541115611230576001600160a01b0384166000908152600c6020526040902080548290811061109857611098612847565b90600052602060002090600802016040518061010001604052908160008201548152602001600182015481526020016002820180546110d690612813565b80601f016020809104026020016040519081016040528092919081815260200182805461110290612813565b801561114f5780601f106111245761010080835404028352916020019161114f565b820191906000526020600020905b81548152906001019060200180831161113257829003601f168201915b5050505050815260200160038201805461116890612813565b80601f016020809104026020016040519081016040528092919081815260200182805461119490612813565b80156111e15780601f106111b6576101008083540402835291602001916111e1565b820191906000526020600020905b8154815290600101906020018083116111c457829003601f168201915b5050505050815260200160048201548152602001600582015481526020016006820154815260200160078201548152505083828151811061122457611224612847565b60200260200101819052505b8061123a81612873565b915050611024565b600b6020526000908152604090208054600182015460028301805492939192610e8890612813565b6008546040516370a0823160e01b81523060048201526000916001600160a01b0316906370a0823190602401602060405180830381865afa1580156112b3573d6000803e3d6000fd5b505050506040513d601f19601f820116820180604052508101906112d79190612aaa565b905090565b6112e46117e3565b6106a18161190d565b600080611304600f543063fd68990a60e01b6119b7565b90506000611311866119dc565b61131a866119dc565b8989611325886119dc565b604051602001611339959493929190612ac3565b60408051601f19818403018152828201909152600e82526d7265717565737455726c3a20257360901b602083015291506113739082611a6e565b60408051808201909152600381526219d95d60ea1b602082015261139990839083611ab7565b6113a582601054611ada565b98975050505050505050565b60008281526005602052604090205482906001600160a01b0316331461142a5760405162461bcd60e51b815260206004820152602860248201527f536f75726365206d75737420626520746865206f7261636c65206f6620746865604482015267081c995c5d595cdd60c21b606482015260840161086c565b60008181526005602052604080822080546001600160a01b03191690555182917f7cc135e0cebb02c3480ae5d74d377283180a2601f8f644edf7987b009316c63a91a2827fbb2e7c388a4ab7e3e8d19035aaa26deba9019ffb404c4742f4caee6ffbfbc0fb836040516114a1911515815260200190565b60405180910390a26000838152600e60209081526040808320548352600b82528083208151610100810183528154815260018201549381019390935260028101805491928401916114f190612813565b80601f016020809104026020016040519081016040528092919081815260200182805461151d90612813565b801561156a5780601f1061153f5761010080835404028352916020019161156a565b820191906000526020600020905b81548152906001019060200180831161154d57829003601f168201915b5050505050815260200160038201805461158390612813565b80601f01602080910402602001604051908101604052809291908181526020018280546115af90612813565b80156115fc5780601f106115d1576101008083540402835291602001916115fc565b820191906000526020600020905b8154815290600101906020018083116115df57829003601f168201915b5050509183525050600482015460208083019190915260058301546040808401919091526006840154606084015260079093015460809092019190915260e08301516000908152600a825282812054835192830190935281529192506001600160a01b031690841561176e5760085460a084015160405163a9059cbb60e01b81526000926001600160a01b03169163a9059cbb916116b29187916004016001600160a01b03929092168252602082015260400190565b6020604051808303816000875af11580156116d1573d6000803e3d6000fd5b505050506040513d601f19601f820116820180604052508101906116f5919061288c565b90508061173b5760405162461bcd60e51b815260206004820152601460248201527310db185a5b481c185e5b595b9d0819985a5b195960621b604482015260640161086c565b6117488460e00151611838565b5050604080518082019091526008815267185c1c1c9bdd995960c21b602082015261178f565b506040805180820190915260088152671c995a9958dd195960c21b60208201525b816001600160a01b03168360e001517f9b463eb954c3711111fffe9293e9b595f0f76c81255f723861cfe950e854a4df8560a00151846040516117d3929190612bc4565b60405180910390a3505050505050565b6006546001600160a01b031633146118365760405162461bcd60e51b815260206004820152601660248201527527b7363c9031b0b63630b1363290313c9037bbb732b960511b604482015260640161086c565b565b6000818152600a6020908152604080832054600b9092528220828155600181018390556001600160a01b03909116916118746002830182612261565b611882600383016000612261565b5060006004820181905560058201819055600682018190556007909101819055828152600a6020908152604080832080546001600160a01b03191690556001600160a01b0384168352600c90915281206118db9161229b565b6001600160a01b0381166000908152600d60205260408120805460019290611904908490612bdd565b90915550505050565b336001600160a01b038216036119655760405162461bcd60e51b815260206004820152601760248201527f43616e6e6f74207472616e7366657220746f2073656c66000000000000000000604482015260640161086c565b600780546001600160a01b0319166001600160a01b03838116918217909255600654604051919216907fed8889f560326eb138920d842192f0eb3dd22b4f139c87a2c57538e05bae127890600090a350565b6119bf6122bc565b6119c76122bc565b6119d381868686611afd565b95945050505050565b606060006119e983611b43565b60010190506000816001600160401b03811115611a0857611a086124d4565b6040519080825280601f01601f191660200182016040528015611a32576020820181803683370190505b5090508181016020015b600019016f181899199a1a9b1b9c1cb0b131b232b360811b600a86061a8153600a8504945084611a3c57509392505050565b611ab38282604051602401611a84929190612bf0565b60408051601f198184030181529190526020810180516001600160e01b0316634b5c427760e01b179052611c1b565b5050565b6080830151611ac69083611c3c565b6080830151611ad59082611c3c565b505050565b600354600090611af4906001600160a01b03168484611c53565b90505b92915050565b611b056122bc565b611b158560800151610100611ce6565b50508284526001600160a01b03821660208501526001600160e01b031981166040850152835b949350505050565b60008072184f03e93ff9f4daa797ed6e38ed64bf6a1f0160401b8310611b825772184f03e93ff9f4daa797ed6e38ed64bf6a1f0160401b830492506040015b6d04ee2d6d415b85acef81000000008310611bae576d04ee2d6d415b85acef8100000000830492506020015b662386f26fc100008310611bcc57662386f26fc10000830492506010015b6305f5e1008310611be4576305f5e100830492506008015b6127108310611bf857612710830492506004015b60648310611c0a576064830492506002015b600a8310611af75760010192915050565b80516a636f6e736f6c652e6c6f67602083016000808483855afa5050505050565b611c498260038351611d4b565b611ad58282611e58565b600454600090611c648160016128b0565b600455835160408086015160808701515191516000936320214ca360e11b93611c9c9386938493923092918a91600191602401612c15565b60408051601f198184030181529190526020810180516001600160e01b03166001600160e01b0319909316929092179091529050611cdc86838684611e7f565b9695505050505050565b604080518082019091526060815260006020820152611d06602083612c7d565b15611d2e57611d16602083612c7d565b611d21906020612bdd565b611d2b90836128b0565b91505b506020828101829052604080518085526000815290920101905290565b6017816001600160401b031611611d7557611d6f8360e0600585901b168317611fdd565b50505050565b60ff816001600160401b031611611db157611d9b836018611fe0600586901b1617611fdd565b50611d6f836001600160401b0383166001612002565b61ffff816001600160401b031611611dee57611dd8836019611fe0600586901b1617611fdd565b50611d6f836001600160401b0383166002612002565b63ffffffff816001600160401b031611611e2d57611e1783601a611fe0600586901b1617611fdd565b50611d6f836001600160401b0383166004612002565b611e4283601b611fe0600586901b1617611fdd565b50611d6f836001600160401b0383166008612002565b604080518082019091526060815260006020820152611af483846000015151848551612028565b6040516bffffffffffffffffffffffff193060601b1660208201526034810184905260009060540160408051808303601f1901815282825280516020918201206000818152600590925291812080546001600160a01b0319166001600160a01b038a1617905590925082917fb5e6e01e79f91267dc17b4e6314d5d4d03593d2ceee0fbb452b750bd70ea5af99190a2600254604051630200057560e51b81526001600160a01b0390911690634000aea090611f4290889087908790600401612c9f565b6020604051808303816000875af1158015611f61573d6000803e3d6000fd5b505050506040513d601f19601f82011682018060405250810190611f85919061288c565b611b3b5760405162461bcd60e51b815260206004820152602360248201527f756e61626c6520746f207472616e73666572416e6443616c6c20746f206f7261604482015262636c6560e81b606482015260840161086c565b604080518082019091526060815260006020820152611af48384600001515184612112565b604080518082019091526060815260006020820152611b3b84856000015151858561216d565b604080518082019091526060815260006020820152825182111561204b57600080fd5b602085015161205a83866128b0565b111561208d5761208d8561207d8760200151878661207891906128b0565b6121ee565b612088906002612cc6565b612205565b6000808651805187602083010193508088870111156120ac5787860182525b505050602084015b602084106120ec57805182526120cb6020836128b0565b91506120d86020826128b0565b90506120e5602085612bdd565b93506120b4565b51815160001960208690036101000a019081169019919091161790525083949350505050565b604080518082019091526060815260006020820152836020015183106121475761214784856020015160026120889190612cc6565b8351805160208583010184815350808503612163576001810182525b5093949350505050565b604080518082019091526060815260006020820152602085015161219185846128b0565b11156121a5576121a58561207d86856128b0565b600060016121b584610100612dc1565b6121bf9190612bdd565b90508551838682010185831982511617815250805184870111156121e35783860181525b509495945050505050565b6000818311156121ff575081611af7565b50919050565b81516122118383611ce6565b50611d6f8382611e58565b60405180610100016040528060008152602001600081526020016060815260200160608152602001600081526020016000815260200160008152602001600081525090565b50805461226d90612813565b6000825580601f1061227d575050565b601f0160209004906000526020600020908101906106a191906122f7565b50805460008255600802906000526020600020908101906106a19190612310565b6040805160a0810182526000808252602080830182905282840182905260608084018390528451808601909552845283015290608082015290565b5b8082111561230c57600081556001016122f8565b5090565b8082111561230c576000808255600182018190556123316002830182612261565b61233f600383016000612261565b5060006004820181905560058201819055600682018190556007820155600801612310565b60006020828403121561237657600080fd5b5035919050565b60005b83811015612398578181015183820152602001612380565b50506000910152565b600081518084526123b981602086016020860161237d565b601f01601f19169290920160200192915050565b6000610100825184526020830151602085015260408301518160408601526123f7828601826123a1565b9150506060830151848203606086015261241182826123a1565b9150506080830151608085015260a083015160a085015260c083015160c085015260e083015160e08501528091505092915050565b602081526000611af460208301846123cd565b80356001600160a01b038116811461247057600080fd5b919050565b60006020828403121561248757600080fd5b611af482612459565b6020808252825182820181905260009190848201906040850190845b818110156124c8578351835292840192918401916001016124ac565b50909695505050505050565b634e487b7160e01b600052604160045260246000fd5b60405161010081016001600160401b038111828210171561250d5761250d6124d4565b60405290565b600082601f83011261252457600080fd5b81356001600160401b038082111561253e5761253e6124d4565b604051601f8301601f19908116603f01168101908282118183101715612566576125666124d4565b8160405283815286602085880101111561257f57600080fd5b836020870160208301376000602085830101528094505050505092915050565b6000602082840312156125b157600080fd5b81356001600160401b03808211156125c857600080fd5b9083019061010082860312156125dd57600080fd5b6125e56124ea565b823581526020830135602082015260408301358281111561260557600080fd5b61261187828601612513565b60408301525060608301358281111561262957600080fd5b61263587828601612513565b6060830152506080830135608082015260a083013560a082015260c083013560c082015260e083013560e082015280935050505092915050565b6000806040838503121561268257600080fd5b61268b83612459565b946020939093013593505050565b60006101008a83528960208401528060408401526126b98184018a6123a1565b905082810360608401526126cd81896123a1565b9150508560808301528460a08301528360c08301528260e08301529998505050505050505050565b6000602080830181845280855180835260408601915060408160051b870101925083870160005b8281101561274a57603f198886030184526127388583516123cd565b9450928501929085019060010161271c565b5092979650505050505050565b600080600080600060a0868803121561276f57600080fd5b85356001600160401b038082111561278657600080fd5b61279289838a01612513565b965060208801359150808211156127a857600080fd5b506127b588828901612513565b959895975050505060408401359360608101359360809091013592509050565b80151581146106a157600080fd5b600080604083850312156127f657600080fd5b823591506020830135612808816127d5565b809150509250929050565b600181811c9082168061282757607f821691505b6020821081036121ff57634e487b7160e01b600052602260045260246000fd5b634e487b7160e01b600052603260045260246000fd5b634e487b7160e01b600052601160045260246000fd5b6000600182016128855761288561285d565b5060010190565b60006020828403121561289e57600080fd5b81516128a9816127d5565b9392505050565b80820180821115611af757611af761285d565b601f821115611ad557600081815260208120601f850160051c810160208610156128ea5750805b601f850160051c820191505b81811015612909578281556001016128f6565b505050505050565b81516001600160401b0381111561292a5761292a6124d4565b61293e816129388454612813565b846128c3565b602080601f831160018114612973576000841561295b5750858301515b600019600386901b1c1916600185901b178555612909565b600085815260208120601f198616915b828110156129a257888601518255948401946001909101908401612983565b50858210156129c05787850151600019600388901b60f8161c191681555b5050505050600190811b01905550565b8181036129db575050565b6129e58254612813565b6001600160401b038111156129fc576129fc6124d4565b612a0a816129388454612813565b6000601f821160018114612a3e5760008315612a265750848201545b600019600385901b1c1916600184901b178455612aa3565b600085815260209020601f19841690600086815260209020845b83811015612a785782860154825560019586019590910190602001612a58565b5085831015612a965781850154600019600388901b60f8161c191681555b50505060018360011b0184555b5050505050565b600060208284031215612abc57600080fd5b5051919050565b7f68747470733a2f2f7261696e737572616e63652e6f72672f6170692f776561748152600060206d6865723f7374617274646174653d60901b818401528751612b1281602e8601848c0161237d565b6826656e64646174653d60b81b602e918501918201528751612b3a8160378401858c0161237d565b64266c61743d60d81b603792909101918201528651612b5f81603c8401858b0161237d565b65266c6f6e673d60d01b603c92909101918201528551612b858160428401858a0161237d565b6e2670726563697069746174696f6e3d60881b604292909101918201528451612bb4816051840185890161237d565b0160510198975050505050505050565b828152604060208201526000611b3b60408301846123a1565b81810381811115611af757611af761285d565b604081526000612c0360408301856123a1565b82810360208401526119d381856123a1565b6001600160a01b0389811682526020820189905260408201889052861660608201526001600160e01b03198516608082015260a0810184905260c0810183905261010060e08201819052600090612c6e838201856123a1565b9b9a5050505050505050505050565b600082612c9a57634e487b7160e01b600052601260045260246000fd5b500690565b60018060a01b03841681528260208201526060604082015260006119d360608301846123a1565b8082028115828204841417611af757611af761285d565b600181815b80851115612d18578160001904821115612cfe57612cfe61285d565b80851615612d0b57918102915b93841c9390800290612ce2565b509250929050565b600082612d2f57506001611af7565b81612d3c57506000611af7565b8160018114612d525760028114612d5c57612d78565b6001915050611af7565b60ff841115612d6d57612d6d61285d565b50506001821b611af7565b5060208310610133831016604e8410600b8410161715612d9b575081810a611af7565b612da58383612cdd565b8060001904821115612db957612db961285d565b029392505050565b6000611af48383612d2056fea2646970667358221220cac9451366676e145b1a2576300e7faba6ed9032f98fbc3a523f3f1f3c1db39264736f6c63430008120033",
  "linkReferences": {},
  "deployedLinkReferences": {}
}